{
  "_format": "hh-sol-artifact-1",
  "contractName": "Rocket",
  "sourceName": "contracts/Apollo.sol",
  "abi": [
    {
      "inputs": [
        {
          "internalType": "string",
          "name": "_name",
          "type": "string"
        }
      ],
      "stateMutability": "nonpayable",
      "type": "constructor"
    },
    {
      "inputs": [],
      "name": "launch",
      "outputs": [],
      "stateMutability": "nonpayable",
      "type": "function"
    },
    {
      "inputs": [],
      "name": "name",
      "outputs": [
        {
          "internalType": "string",
          "name": "",
          "type": "string"
        }
      ],
      "stateMutability": "view",
      "type": "function"
    },
    {
      "inputs": [],
      "name": "status",
      "outputs": [
        {
          "internalType": "string",
          "name": "",
          "type": "string"
        }
      ],
      "stateMutability": "view",
      "type": "function"
    }
  ],
  "bytecode": "0x608060405234801561001057600080fd5b506040516105cd3803806105cd83398101604081905261002f91610085565b600061003b82826101d9565b5060408051808201909152600881526734b3b734ba34b7b760c11b602082015260019061006890826101d9565b5050610298565b634e487b7160e01b600052604160045260246000fd5b6000602080838503121561009857600080fd5b82516001600160401b03808211156100af57600080fd5b818501915085601f8301126100c357600080fd5b8151818111156100d5576100d561006f565b604051601f8201601f19908116603f011681019083821181831017156100fd576100fd61006f565b81604052828152888684870101111561011557600080fd5b600093505b82841015610137578484018601518185018701529285019261011a565b600086848301015280965050505050505092915050565b600181811c9082168061016257607f821691505b60208210810361018257634e487b7160e01b600052602260045260246000fd5b50919050565b601f8211156101d4576000816000526020600020601f850160051c810160208610156101b15750805b601f850160051c820191505b818110156101d0578281556001016101bd565b5050505b505050565b81516001600160401b038111156101f2576101f261006f565b61020681610200845461014e565b84610188565b602080601f83116001811461023b57600084156102235750858301515b600019600386901b1c1916600185901b1785556101d0565b600085815260208120601f198616915b8281101561026a5788860151825594840194600190910190840161024b565b50858210156102885787850151600019600388901b60f8161c191681555b5050505050600190811b01905550565b610326806102a76000396000f3fe608060405234801561001057600080fd5b50600436106100415760003560e01c806301339c211461004657806306fdde0314610050578063200d2ed21461006e575b600080fd5b61004e610076565b005b6100586100a5565b6040516100659190610140565b60405180910390f35b610058610133565b6040805180820190915260088152673634b33a16b7b33360c11b60208201526001906100a29082610230565b50565b600080546100b2906101a5565b80601f01602080910402602001604051908101604052809291908181526020018280546100de906101a5565b801561012b5780601f106101005761010080835404028352916020019161012b565b820191906000526020600020905b81548152906001019060200180831161010e57829003601f168201915b505050505081565b600180546100b2906101a5565b60006020808352835180602085015260005b8181101561016e57858101830151858201604001528201610152565b506000604082860101526040601f19601f8301168501019250505092915050565b634e487b7160e01b600052604160045260246000fd5b600181811c908216806101b957607f821691505b6020821081036101d957634e487b7160e01b600052602260045260246000fd5b50919050565b601f82111561022b576000816000526020600020601f850160051c810160208610156102085750805b601f850160051c820191505b8181101561022757828155600101610214565b5050505b505050565b815167ffffffffffffffff81111561024a5761024a61018f565b61025e8161025884546101a5565b846101df565b602080601f831160018114610293576000841561027b5750858301515b600019600386901b1c1916600185901b178555610227565b600085815260208120601f198616915b828110156102c2578886015182559484019460019091019084016102a3565b50858210156102e05787850151600019600388901b60f8161c191681555b5050505050600190811b0190555056fea2646970667358221220b91ef54a0576429070dec16009e0bdf43e555f4921a9b6414d40306f2de19f0364736f6c63430008180033",
  "linkReferences": {},
  "deployedLinkReferences": {}
}